{
  "_format": "hh-sol-artifact-1",
  "contractName": "NFT",
  "sourceName": "contracts/NFT.sol",
  "abi": [
    {
      "inputs": [],
      "stateMutability": "nonpayable",
      "type": "constructor"
    },
    {
      "anonymous": false,
      "inputs": [
        {
          "indexed": true,
          "internalType": "address",
          "name": "owner",
          "type": "address"
        },
        {
          "indexed": true,
          "internalType": "address",
          "name": "approved",
          "type": "address"
        },
        {
          "indexed": true,
          "internalType": "uint256",
          "name": "tokenId",
          "type": "uint256"
        }
      ],
      "name": "Approval",
      "type": "event"
    },
    {
      "anonymous": false,
      "inputs": [
        {
          "indexed": true,
          "internalType": "address",
          "name": "owner",
          "type": "address"
        },
        {
          "indexed": true,
          "internalType": "address",
          "name": "operator",
          "type": "address"
        },
        {
          "indexed": false,
          "internalType": "bool",
          "name": "approved",
          "type": "bool"
        }
      ],
      "name": "ApprovalForAll",
      "type": "event"
    },
    {
      "anonymous": false,
      "inputs": [
        {
          "indexed": true,
          "internalType": "address",
          "name": "from",
          "type": "address"
        },
        {
          "indexed": true,
          "internalType": "address",
          "name": "to",
          "type": "address"
        },
        {
          "indexed": true,
          "internalType": "uint256",
          "name": "tokenId",
          "type": "uint256"
        }
      ],
      "name": "Transfer",
      "type": "event"
    },
    {
      "anonymous": false,
      "inputs": [
        {
          "indexed": true,
          "internalType": "uint256",
          "name": "tokenId",
          "type": "uint256"
        },
        {
          "indexed": false,
          "internalType": "address",
          "name": "owner",
          "type": "address"
        }
      ],
      "name": "TransferSuccessfull",
      "type": "event"
    },
    {
      "inputs": [
        {
          "internalType": "address",
          "name": "to",
          "type": "address"
        },
        {
          "internalType": "uint256",
          "name": "tokenId",
          "type": "uint256"
        }
      ],
      "name": "approve",
      "outputs": [],
      "stateMutability": "nonpayable",
      "type": "function"
    },
    {
      "inputs": [
        {
          "internalType": "address",
          "name": "owner",
          "type": "address"
        }
      ],
      "name": "balanceOf",
      "outputs": [
        {
          "internalType": "uint256",
          "name": "",
          "type": "uint256"
        }
      ],
      "stateMutability": "view",
      "type": "function"
    },
    {
      "inputs": [],
      "name": "displayMyNFTs",
      "outputs": [
        {
          "components": [
            {
              "internalType": "uint256",
              "name": "itemId",
              "type": "uint256"
            },
            {
              "internalType": "uint256",
              "name": "tokenId",
              "type": "uint256"
            },
            {
              "internalType": "address payable",
              "name": "owner",
              "type": "address"
            }
          ],
          "internalType": "struct NFT.NFTitem[]",
          "name": "",
          "type": "tuple[]"
        }
      ],
      "stateMutability": "view",
      "type": "function"
    },
    {
      "inputs": [],
      "name": "displayNFT",
      "outputs": [
        {
          "components": [
            {
              "internalType": "uint256",
              "name": "itemId",
              "type": "uint256"
            },
            {
              "internalType": "uint256",
              "name": "tokenId",
              "type": "uint256"
            },
            {
              "internalType": "address payable",
              "name": "owner",
              "type": "address"
            }
          ],
          "internalType": "struct NFT.NFTitem[]",
          "name": "",
          "type": "tuple[]"
        }
      ],
      "stateMutability": "view",
      "type": "function"
    },
    {
      "inputs": [
        {
          "internalType": "uint256",
          "name": "tokenId",
          "type": "uint256"
        }
      ],
      "name": "getApproved",
      "outputs": [
        {
          "internalType": "address",
          "name": "",
          "type": "address"
        }
      ],
      "stateMutability": "view",
      "type": "function"
    },
    {
      "inputs": [
        {
          "internalType": "address",
          "name": "nftaddress",
          "type": "address"
        },
        {
          "internalType": "uint256",
          "name": "tokenId",
          "type": "uint256"
        }
      ],
      "name": "giveOwnership",
      "outputs": [],
      "stateMutability": "payable",
      "type": "function"
    },
    {
      "inputs": [
        {
          "internalType": "address",
          "name": "owner",
          "type": "address"
        },
        {
          "internalType": "address",
          "name": "operator",
          "type": "address"
        }
      ],
      "name": "isApprovedForAll",
      "outputs": [
        {
          "internalType": "bool",
          "name": "",
          "type": "bool"
        }
      ],
      "stateMutability": "view",
      "type": "function"
    },
    {
      "inputs": [
        {
          "internalType": "address",
          "name": "recipient",
          "type": "address"
        },
        {
          "internalType": "string",
          "name": "tokenURI",
          "type": "string"
        }
      ],
      "name": "mintNFT",
      "outputs": [
        {
          "internalType": "uint256",
          "name": "",
          "type": "uint256"
        }
      ],
      "stateMutability": "nonpayable",
      "type": "function"
    },
    {
      "inputs": [],
      "name": "name",
      "outputs": [
        {
          "internalType": "string",
          "name": "",
          "type": "string"
        }
      ],
      "stateMutability": "view",
      "type": "function"
    },
    {
      "inputs": [
        {
          "internalType": "uint256",
          "name": "tokenId",
          "type": "uint256"
        }
      ],
      "name": "ownerOf",
      "outputs": [
        {
          "internalType": "address",
          "name": "",
          "type": "address"
        }
      ],
      "stateMutability": "view",
      "type": "function"
    },
    {
      "inputs": [
        {
          "internalType": "address",
          "name": "from",
          "type": "address"
        },
        {
          "internalType": "address",
          "name": "to",
          "type": "address"
        },
        {
          "internalType": "uint256",
          "name": "tokenId",
          "type": "uint256"
        }
      ],
      "name": "safeTransferFrom",
      "outputs": [],
      "stateMutability": "nonpayable",
      "type": "function"
    },
    {
      "inputs": [
        {
          "internalType": "address",
          "name": "from",
          "type": "address"
        },
        {
          "internalType": "address",
          "name": "to",
          "type": "address"
        },
        {
          "internalType": "uint256",
          "name": "tokenId",
          "type": "uint256"
        },
        {
          "internalType": "bytes",
          "name": "_data",
          "type": "bytes"
        }
      ],
      "name": "safeTransferFrom",
      "outputs": [],
      "stateMutability": "nonpayable",
      "type": "function"
    },
    {
      "inputs": [
        {
          "internalType": "address",
          "name": "operator",
          "type": "address"
        },
        {
          "internalType": "bool",
          "name": "approved",
          "type": "bool"
        }
      ],
      "name": "setApprovalForAll",
      "outputs": [],
      "stateMutability": "nonpayable",
      "type": "function"
    },
    {
      "inputs": [
        {
          "internalType": "bytes4",
          "name": "interfaceId",
          "type": "bytes4"
        }
      ],
      "name": "supportsInterface",
      "outputs": [
        {
          "internalType": "bool",
          "name": "",
          "type": "bool"
        }
      ],
      "stateMutability": "view",
      "type": "function"
    },
    {
      "inputs": [],
      "name": "symbol",
      "outputs": [
        {
          "internalType": "string",
          "name": "",
          "type": "string"
        }
      ],
      "stateMutability": "view",
      "type": "function"
    },
    {
      "inputs": [
        {
          "internalType": "uint256",
          "name": "tokenId",
          "type": "uint256"
        }
      ],
      "name": "tokenURI",
      "outputs": [
        {
          "internalType": "string",
          "name": "",
          "type": "string"
        }
      ],
      "stateMutability": "view",
      "type": "function"
    },
    {
      "inputs": [
        {
          "internalType": "address",
          "name": "from",
          "type": "address"
        },
        {
          "internalType": "address",
          "name": "to",
          "type": "address"
        },
        {
          "internalType": "uint256",
          "name": "tokenId",
          "type": "uint256"
        }
      ],
      "name": "transferFrom",
      "outputs": [],
      "stateMutability": "nonpayable",
      "type": "function"
    }
  ],
  "bytecode": "0x60806040523480156200001157600080fd5b506040518060400160405280600b81526020017f4d696e6f726974794e46540000000000000000000000000000000000000000008152506040518060400160405280600681526020017f4d50414e46540000000000000000000000000000000000000000000000000000815250816000908051906020019062000096929190620000c0565b508060019080519060200190620000af929190620000c0565b5050506001600781905550620001d5565b828054620000ce9062000170565b90600052602060002090601f016020900481019282620000f257600085556200013e565b82601f106200010d57805160ff19168380011785556200013e565b828001600101855582156200013e579182015b828111156200013d57825182559160200191906001019062000120565b5b5090506200014d919062000151565b5090565b5b808211156200016c57600081600090555060010162000152565b5090565b600060028204905060018216806200018957607f821691505b60208210811415620001a0576200019f620001a6565b5b50919050565b7f4e487b7100000000000000000000000000000000000000000000000000000000600052602260045260246000fd5b61354380620001e56000396000f3fe6080604052600436106100fe5760003560e01c806370a0823111610095578063a22cb46511610064578063a22cb4651461033a578063b88d4fde14610363578063c87b56dd1461038c578063e985e9c5146103c9578063eacabe1414610406576100fe565b806370a082311461027c57806395d89b41146102b9578063993db463146102e45780639d23a60d1461030f576100fe565b806320cf321b116100d157806320cf321b146101d157806323b872dd146101ed57806342842e0e146102165780636352211e1461023f576100fe565b806301ffc9a71461010357806306fdde0314610140578063081812fc1461016b578063095ea7b3146101a8575b600080fd5b34801561010f57600080fd5b5061012a6004803603810190610125919061240a565b610443565b6040516101379190612962565b60405180910390f35b34801561014c57600080fd5b50610155610525565b604051610162919061297d565b60405180910390f35b34801561017757600080fd5b50610192600480360381019061018d919061245c565b6105b7565b60405161019f91906128a2565b60405180910390f35b3480156101b457600080fd5b506101cf60048036038101906101ca91906123ce565b61063c565b005b6101eb60048036038101906101e691906123ce565b610754565b005b3480156101f957600080fd5b50610214600480360381019061020f9190612274565b61095d565b005b34801561022257600080fd5b5061023d60048036038101906102389190612274565b6109bd565b005b34801561024b57600080fd5b506102666004803603810190610261919061245c565b6109dd565b60405161027391906128a2565b60405180910390f35b34801561028857600080fd5b506102a3600480360381019061029e919061220f565b610a8f565b6040516102b09190612bbf565b60405180910390f35b3480156102c557600080fd5b506102ce610b47565b6040516102db919061297d565b60405180910390f35b3480156102f057600080fd5b506102f9610bd9565b6040516103069190612940565b60405180910390f35b34801561031b57600080fd5b50610324610d83565b6040516103319190612940565b60405180910390f35b34801561034657600080fd5b50610361600480360381019061035c919061233e565b61104c565b005b34801561036f57600080fd5b5061038a600480360381019061038591906122c3565b611062565b005b34801561039857600080fd5b506103b360048036038101906103ae919061245c565b6110c4565b6040516103c0919061297d565b60405180910390f35b3480156103d557600080fd5b506103f060048036038101906103eb9190612238565b611216565b6040516103fd9190612962565b60405180910390f35b34801561041257600080fd5b5061042d6004803603810190610428919061237a565b6112aa565b60405161043a9190612bbf565b60405180910390f35b60007f80ac58cd000000000000000000000000000000000000000000000000000000007bffffffffffffffffffffffffffffffffffffffffffffffffffffffff1916827bffffffffffffffffffffffffffffffffffffffffffffffffffffffff1916148061050e57507f5b5e139f000000000000000000000000000000000000000000000000000000007bffffffffffffffffffffffffffffffffffffffffffffffffffffffff1916827bffffffffffffffffffffffffffffffffffffffffffffffffffffffff1916145b8061051e575061051d826112e2565b5b9050919050565b60606000805461053490612e60565b80601f016020809104026020016040519081016040528092919081815260200182805461056090612e60565b80156105ad5780601f10610582576101008083540402835291602001916105ad565b820191906000526020600020905b81548152906001019060200180831161059057829003601f168201915b5050505050905090565b60006105c28261134c565b610601576040517f08c379a00000000000000000000000000000000000000000000000000000000081526004016105f890612aff565b60405180910390fd5b6004600083815260200190815260200160002060009054906101000a900473ffffffffffffffffffffffffffffffffffffffff169050919050565b6000610647826109dd565b90508073ffffffffffffffffffffffffffffffffffffffff168373ffffffffffffffffffffffffffffffffffffffff1614156106b8576040517f08c379a00000000000000000000000000000000000000000000000000000000081526004016106af90612b5f565b60405180910390fd5b8073ffffffffffffffffffffffffffffffffffffffff166106d76113b8565b73ffffffffffffffffffffffffffffffffffffffff1614806107065750610705816107006113b8565b611216565b5b610745576040517f08c379a000000000000000000000000000000000000000000000000000000000815260040161073c90612a3f565b60405180910390fd5b61074f83836113c0565b505050565b6002600754141561079a576040517f08c379a000000000000000000000000000000000000000000000000000000000815260040161079190612b9f565b60405180910390fd5b600260078190555060003490506107b16009611479565b60006107bd600961148f565b905060405180606001604052808281526020018481526020013373ffffffffffffffffffffffffffffffffffffffff16815250600a6000838152602001908152602001600020600082015181600001556020820151816001015560408201518160020160006101000a81548173ffffffffffffffffffffffffffffffffffffffff021916908373ffffffffffffffffffffffffffffffffffffffff1602179055509050508373ffffffffffffffffffffffffffffffffffffffff166323b872dd3033866040518463ffffffff1660e01b815260040161089e939291906128bd565b600060405180830381600087803b1580156108b857600080fd5b505af11580156108cc573d6000803e3d6000fd5b505050503373ffffffffffffffffffffffffffffffffffffffff166108fc839081150290604051600060405180830381858888f19350505050158015610916573d6000803e3d6000fd5b50827f185257b1769c2ab7d6926ea0bede287b20e5908c4a1a8ba79d61849728ace92a3360405161094791906128a2565b60405180910390a2505060016007819055505050565b61096e6109686113b8565b8261149d565b6109ad576040517f08c379a00000000000000000000000000000000000000000000000000000000081526004016109a490612b7f565b60405180910390fd5b6109b883838361157b565b505050565b6109d883838360405180602001604052806000815250611062565b505050565b6000806002600084815260200190815260200160002060009054906101000a900473ffffffffffffffffffffffffffffffffffffffff169050600073ffffffffffffffffffffffffffffffffffffffff168173ffffffffffffffffffffffffffffffffffffffff161415610a86576040517f08c379a0000000000000000000000000000000000000000000000000000000008152600401610a7d90612a7f565b60405180910390fd5b80915050919050565b60008073ffffffffffffffffffffffffffffffffffffffff168273ffffffffffffffffffffffffffffffffffffffff161415610b00576040517f08c379a0000000000000000000000000000000000000000000000000000000008152600401610af790612a5f565b60405180910390fd5b600360008373ffffffffffffffffffffffffffffffffffffffff1673ffffffffffffffffffffffffffffffffffffffff168152602001908152602001600020549050919050565b606060018054610b5690612e60565b80601f0160208091040260200160405190810160405280929190818152602001828054610b8290612e60565b8015610bcf5780601f10610ba457610100808354040283529160200191610bcf565b820191906000526020600020905b815481529060010190602001808311610bb257829003601f168201915b5050505050905090565b60606000610be7600961148f565b90506000808267ffffffffffffffff811115610c2c577f4e487b7100000000000000000000000000000000000000000000000000000000600052604160045260246000fd5b604051908082528060200260200182016040528015610c6557816020015b610c52611ffc565b815260200190600190039081610c4a5790505b50905060005b83811015610d79576000600182610c829190612cdd565b90506000600a600083815260200190815260200160002090508060405180606001604052908160008201548152602001600182015481526020016002820160009054906101000a900473ffffffffffffffffffffffffffffffffffffffff1673ffffffffffffffffffffffffffffffffffffffff1673ffffffffffffffffffffffffffffffffffffffff1681525050848681518110610d4a577f4e487b7100000000000000000000000000000000000000000000000000000000600052603260045260246000fd5b6020026020010181905250600185610d629190612cdd565b945050508080610d7190612ec3565b915050610c6b565b5080935050505090565b60606000610d91600961148f565b905060008060005b83811015610e3a573373ffffffffffffffffffffffffffffffffffffffff16600a6000600184610dc99190612cdd565b815260200190815260200160002060020160009054906101000a900473ffffffffffffffffffffffffffffffffffffffff1673ffffffffffffffffffffffffffffffffffffffff161415610e2757600183610e249190612cdd565b92505b8080610e3290612ec3565b915050610d99565b5060008267ffffffffffffffff811115610e7d577f4e487b7100000000000000000000000000000000000000000000000000000000600052604160045260246000fd5b604051908082528060200260200182016040528015610eb657816020015b610ea3611ffc565b815260200190600190039081610e9b5790505b50905060005b84811015611041573373ffffffffffffffffffffffffffffffffffffffff16600a6000600184610eec9190612cdd565b815260200190815260200160002060020160009054906101000a900473ffffffffffffffffffffffffffffffffffffffff1673ffffffffffffffffffffffffffffffffffffffff16141561102e576000600182610f499190612cdd565b90506000600a600083815260200190815260200160002090508060405180606001604052908160008201548152602001600182015481526020016002820160009054906101000a900473ffffffffffffffffffffffffffffffffffffffff1673ffffffffffffffffffffffffffffffffffffffff1673ffffffffffffffffffffffffffffffffffffffff1681525050848681518110611011577f4e487b7100000000000000000000000000000000000000000000000000000000600052603260045260246000fd5b60200260200101819052506001856110299190612cdd565b945050505b808061103990612ec3565b915050610ebc565b508094505050505090565b61105e6110576113b8565b83836117d7565b5050565b61107361106d6113b8565b8361149d565b6110b2576040517f08c379a00000000000000000000000000000000000000000000000000000000081526004016110a990612b7f565b60405180910390fd5b6110be84848484611944565b50505050565b60606110cf8261134c565b61110e576040517f08c379a000000000000000000000000000000000000000000000000000000000815260040161110590612adf565b60405180910390fd5b600060066000848152602001908152602001600020805461112e90612e60565b80601f016020809104026020016040519081016040528092919081815260200182805461115a90612e60565b80156111a75780601f1061117c576101008083540402835291602001916111a7565b820191906000526020600020905b81548152906001019060200180831161118a57829003601f168201915b5050505050905060006111b86119a0565b90506000815114156111ce578192505050611211565b6000825111156112035780826040516020016111eb92919061287e565b60405160208183030381529060405292505050611211565b61120c846119b7565b925050505b919050565b6000600560008473ffffffffffffffffffffffffffffffffffffffff1673ffffffffffffffffffffffffffffffffffffffff16815260200190815260200160002060008373ffffffffffffffffffffffffffffffffffffffff1673ffffffffffffffffffffffffffffffffffffffff16815260200190815260200160002060009054906101000a900460ff16905092915050565b60006112b66008611479565b60006112c2600861148f565b90506112ce8482611a5e565b6112d88184611c2c565b8091505092915050565b60007f01ffc9a7000000000000000000000000000000000000000000000000000000007bffffffffffffffffffffffffffffffffffffffffffffffffffffffff1916827bffffffffffffffffffffffffffffffffffffffffffffffffffffffff1916149050919050565b60008073ffffffffffffffffffffffffffffffffffffffff166002600084815260200190815260200160002060009054906101000a900473ffffffffffffffffffffffffffffffffffffffff1673ffffffffffffffffffffffffffffffffffffffff1614159050919050565b600033905090565b816004600083815260200190815260200160002060006101000a81548173ffffffffffffffffffffffffffffffffffffffff021916908373ffffffffffffffffffffffffffffffffffffffff160217905550808273ffffffffffffffffffffffffffffffffffffffff16611433836109dd565b73ffffffffffffffffffffffffffffffffffffffff167f8c5be1e5ebec7d5bd14f71427d1e84f3dd0314c0f7b2291e5b200ac8c7c3b92560405160405180910390a45050565b6001816000016000828254019250508190555050565b600081600001549050919050565b60006114a88261134c565b6114e7576040517f08c379a00000000000000000000000000000000000000000000000000000000081526004016114de90612a1f565b60405180910390fd5b60006114f2836109dd565b90508073ffffffffffffffffffffffffffffffffffffffff168473ffffffffffffffffffffffffffffffffffffffff16148061156157508373ffffffffffffffffffffffffffffffffffffffff16611549846105b7565b73ffffffffffffffffffffffffffffffffffffffff16145b8061157257506115718185611216565b5b91505092915050565b8273ffffffffffffffffffffffffffffffffffffffff1661159b826109dd565b73ffffffffffffffffffffffffffffffffffffffff16146115f1576040517f08c379a00000000000000000000000000000000000000000000000000000000081526004016115e890612b1f565b60405180910390fd5b600073ffffffffffffffffffffffffffffffffffffffff168273ffffffffffffffffffffffffffffffffffffffff161415611661576040517f08c379a0000000000000000000000000000000000000000000000000000000008152600401611658906129df565b60405180910390fd5b61166c838383611ca0565b6116776000826113c0565b6001600360008573ffffffffffffffffffffffffffffffffffffffff1673ffffffffffffffffffffffffffffffffffffffff16815260200190815260200160002060008282546116c79190612d64565b925050819055506001600360008473ffffffffffffffffffffffffffffffffffffffff1673ffffffffffffffffffffffffffffffffffffffff168152602001908152602001600020600082825461171e9190612cdd565b92505081905550816002600083815260200190815260200160002060006101000a81548173ffffffffffffffffffffffffffffffffffffffff021916908373ffffffffffffffffffffffffffffffffffffffff160217905550808273ffffffffffffffffffffffffffffffffffffffff168473ffffffffffffffffffffffffffffffffffffffff167fddf252ad1be2c89b69c2b068fc378daa952ba7f163c4a11628f55a4df523b3ef60405160405180910390a4505050565b8173ffffffffffffffffffffffffffffffffffffffff168373ffffffffffffffffffffffffffffffffffffffff161415611846576040517f08c379a000000000000000000000000000000000000000000000000000000000815260040161183d906129ff565b60405180910390fd5b80600560008573ffffffffffffffffffffffffffffffffffffffff1673ffffffffffffffffffffffffffffffffffffffff16815260200190815260200160002060008473ffffffffffffffffffffffffffffffffffffffff1673ffffffffffffffffffffffffffffffffffffffff16815260200190815260200160002060006101000a81548160ff0219169083151502179055508173ffffffffffffffffffffffffffffffffffffffff168373ffffffffffffffffffffffffffffffffffffffff167f17307eab39ab6107e8899845ad3d59bd9653f200f220920489ca2b5937696c31836040516119379190612962565b60405180910390a3505050565b61194f84848461157b565b61195b84848484611ca5565b61199a576040517f08c379a00000000000000000000000000000000000000000000000000000000081526004016119919061299f565b60405180910390fd5b50505050565b606060405180602001604052806000815250905090565b60606119c28261134c565b611a01576040517f08c379a00000000000000000000000000000000000000000000000000000000081526004016119f890612b3f565b60405180910390fd5b6000611a0b6119a0565b90506000815111611a2b5760405180602001604052806000815250611a56565b80611a3584611e3c565b604051602001611a4692919061287e565b6040516020818303038152906040525b915050919050565b600073ffffffffffffffffffffffffffffffffffffffff168273ffffffffffffffffffffffffffffffffffffffff161415611ace576040517f08c379a0000000000000000000000000000000000000000000000000000000008152600401611ac590612abf565b60405180910390fd5b611ad78161134c565b15611b17576040517f08c379a0000000000000000000000000000000000000000000000000000000008152600401611b0e906129bf565b60405180910390fd5b611b2360008383611ca0565b6001600360008473ffffffffffffffffffffffffffffffffffffffff1673ffffffffffffffffffffffffffffffffffffffff1681526020019081526020016000206000828254611b739190612cdd565b92505081905550816002600083815260200190815260200160002060006101000a81548173ffffffffffffffffffffffffffffffffffffffff021916908373ffffffffffffffffffffffffffffffffffffffff160217905550808273ffffffffffffffffffffffffffffffffffffffff16600073ffffffffffffffffffffffffffffffffffffffff167fddf252ad1be2c89b69c2b068fc378daa952ba7f163c4a11628f55a4df523b3ef60405160405180910390a45050565b611c358261134c565b611c74576040517f08c379a0000000000000000000000000000000000000000000000000000000008152600401611c6b90612a9f565b60405180910390fd5b80600660008481526020019081526020016000209080519060200190611c9b929190612033565b505050565b505050565b6000611cc68473ffffffffffffffffffffffffffffffffffffffff16611fe9565b15611e2f578373ffffffffffffffffffffffffffffffffffffffff1663150b7a02611cef6113b8565b8786866040518563ffffffff1660e01b8152600401611d1194939291906128f4565b602060405180830381600087803b158015611d2b57600080fd5b505af1925050508015611d5c57506040513d601f19601f82011682018060405250810190611d599190612433565b60015b611ddf573d8060008114611d8c576040519150601f19603f3d011682016040523d82523d6000602084013e611d91565b606091505b50600081511415611dd7576040517f08c379a0000000000000000000000000000000000000000000000000000000008152600401611dce9061299f565b60405180910390fd5b805181602001fd5b63150b7a0260e01b7bffffffffffffffffffffffffffffffffffffffffffffffffffffffff1916817bffffffffffffffffffffffffffffffffffffffffffffffffffffffff191614915050611e34565b600190505b949350505050565b60606000821415611e84576040518060400160405280600181526020017f30000000000000000000000000000000000000000000000000000000000000008152509050611fe4565b600082905060005b60008214611eb6578080611e9f90612ec3565b915050600a82611eaf9190612d33565b9150611e8c565b60008167ffffffffffffffff811115611ef8577f4e487b7100000000000000000000000000000000000000000000000000000000600052604160045260246000fd5b6040519080825280601f01601f191660200182016040528015611f2a5781602001600182028036833780820191505090505b5090505b60008514611fdd57600182611f439190612d64565b9150600a85611f529190612f0c565b6030611f5e9190612cdd565b60f81b818381518110611f9a577f4e487b7100000000000000000000000000000000000000000000000000000000600052603260045260246000fd5b60200101907effffffffffffffffffffffffffffffffffffffffffffffffffffffffffffff1916908160001a905350600a85611fd69190612d33565b9450611f2e565b8093505050505b919050565b600080823b905060008111915050919050565b60405180606001604052806000815260200160008152602001600073ffffffffffffffffffffffffffffffffffffffff1681525090565b82805461203f90612e60565b90600052602060002090601f01602090048101928261206157600085556120a8565b82601f1061207a57805160ff19168380011785556120a8565b828001600101855582156120a8579182015b828111156120a757825182559160200191906001019061208c565b5b5090506120b591906120b9565b5090565b5b808211156120d25760008160009055506001016120ba565b5090565b60006120e96120e484612bff565b612bda565b90508281526020810184848401111561210157600080fd5b61210c848285612e1e565b509392505050565b600061212761212284612c30565b612bda565b90508281526020810184848401111561213f57600080fd5b61214a848285612e1e565b509392505050565b600081359050612161816134b1565b92915050565b600081359050612176816134c8565b92915050565b60008135905061218b816134df565b92915050565b6000815190506121a0816134df565b92915050565b600082601f8301126121b757600080fd5b81356121c78482602086016120d6565b91505092915050565b600082601f8301126121e157600080fd5b81356121f1848260208601612114565b91505092915050565b600081359050612209816134f6565b92915050565b60006020828403121561222157600080fd5b600061222f84828501612152565b91505092915050565b6000806040838503121561224b57600080fd5b600061225985828601612152565b925050602061226a85828601612152565b9150509250929050565b60008060006060848603121561228957600080fd5b600061229786828701612152565b93505060206122a886828701612152565b92505060406122b9868287016121fa565b9150509250925092565b600080600080608085870312156122d957600080fd5b60006122e787828801612152565b94505060206122f887828801612152565b9350506040612309878288016121fa565b925050606085013567ffffffffffffffff81111561232657600080fd5b612332878288016121a6565b91505092959194509250565b6000806040838503121561235157600080fd5b600061235f85828601612152565b925050602061237085828601612167565b9150509250929050565b6000806040838503121561238d57600080fd5b600061239b85828601612152565b925050602083013567ffffffffffffffff8111156123b857600080fd5b6123c4858286016121d0565b9150509250929050565b600080604083850312156123e157600080fd5b60006123ef85828601612152565b9250506020612400858286016121fa565b9150509250929050565b60006020828403121561241c57600080fd5b600061242a8482850161217c565b91505092915050565b60006020828403121561244557600080fd5b600061245384828501612191565b91505092915050565b60006020828403121561246e57600080fd5b600061247c848285016121fa565b91505092915050565b6000612491838361281e565b60608301905092915050565b6124a681612daa565b82525050565b6124b581612d98565b82525050565b60006124c682612c71565b6124d08185612c9f565b93506124db83612c61565b8060005b8381101561250c5781516124f38882612485565b97506124fe83612c92565b9250506001810190506124df565b5085935050505092915050565b61252281612dbc565b82525050565b600061253382612c7c565b61253d8185612cb0565b935061254d818560208601612e2d565b61255681612ff9565b840191505092915050565b600061256c82612c87565b6125768185612cc1565b9350612586818560208601612e2d565b61258f81612ff9565b840191505092915050565b60006125a582612c87565b6125af8185612cd2565b93506125bf818560208601612e2d565b80840191505092915050565b60006125d8603283612cc1565b91506125e38261300a565b604082019050919050565b60006125fb601c83612cc1565b915061260682613059565b602082019050919050565b600061261e602483612cc1565b915061262982613082565b604082019050919050565b6000612641601983612cc1565b915061264c826130d1565b602082019050919050565b6000612664602c83612cc1565b915061266f826130fa565b604082019050919050565b6000612687603883612cc1565b915061269282613149565b604082019050919050565b60006126aa602a83612cc1565b91506126b582613198565b604082019050919050565b60006126cd602983612cc1565b91506126d8826131e7565b604082019050919050565b60006126f0602e83612cc1565b91506126fb82613236565b604082019050919050565b6000612713602083612cc1565b915061271e82613285565b602082019050919050565b6000612736603183612cc1565b9150612741826132ae565b604082019050919050565b6000612759602c83612cc1565b9150612764826132fd565b604082019050919050565b600061277c602983612cc1565b91506127878261334c565b604082019050919050565b600061279f602f83612cc1565b91506127aa8261339b565b604082019050919050565b60006127c2602183612cc1565b91506127cd826133ea565b604082019050919050565b60006127e5603183612cc1565b91506127f082613439565b604082019050919050565b6000612808601f83612cc1565b915061281382613488565b602082019050919050565b6060820160008201516128346000850182612860565b5060208201516128476020850182612860565b50604082015161285a604085018261249d565b50505050565b61286981612e14565b82525050565b61287881612e14565b82525050565b600061288a828561259a565b9150612896828461259a565b91508190509392505050565b60006020820190506128b760008301846124ac565b92915050565b60006060820190506128d260008301866124ac565b6128df60208301856124ac565b6128ec604083018461286f565b949350505050565b600060808201905061290960008301876124ac565b61291660208301866124ac565b612923604083018561286f565b81810360608301526129358184612528565b905095945050505050565b6000602082019050818103600083015261295a81846124bb565b905092915050565b60006020820190506129776000830184612519565b92915050565b600060208201905081810360008301526129978184612561565b905092915050565b600060208201905081810360008301526129b8816125cb565b9050919050565b600060208201905081810360008301526129d8816125ee565b9050919050565b600060208201905081810360008301526129f881612611565b9050919050565b60006020820190508181036000830152612a1881612634565b9050919050565b60006020820190508181036000830152612a3881612657565b9050919050565b60006020820190508181036000830152612a588161267a565b9050919050565b60006020820190508181036000830152612a788161269d565b9050919050565b60006020820190508181036000830152612a98816126c0565b9050919050565b60006020820190508181036000830152612ab8816126e3565b9050919050565b60006020820190508181036000830152612ad881612706565b9050919050565b60006020820190508181036000830152612af881612729565b9050919050565b60006020820190508181036000830152612b188161274c565b9050919050565b60006020820190508181036000830152612b388161276f565b9050919050565b60006020820190508181036000830152612b5881612792565b9050919050565b60006020820190508181036000830152612b78816127b5565b9050919050565b60006020820190508181036000830152612b98816127d8565b9050919050565b60006020820190508181036000830152612bb8816127fb565b9050919050565b6000602082019050612bd4600083018461286f565b92915050565b6000612be4612bf5565b9050612bf08282612e92565b919050565b6000604051905090565b600067ffffffffffffffff821115612c1a57612c19612fca565b5b612c2382612ff9565b9050602081019050919050565b600067ffffffffffffffff821115612c4b57612c4a612fca565b5b612c5482612ff9565b9050602081019050919050565b6000819050602082019050919050565b600081519050919050565b600081519050919050565b600081519050919050565b6000602082019050919050565b600082825260208201905092915050565b600082825260208201905092915050565b600082825260208201905092915050565b600081905092915050565b6000612ce882612e14565b9150612cf383612e14565b9250827fffffffffffffffffffffffffffffffffffffffffffffffffffffffffffffffff03821115612d2857612d27612f3d565b5b828201905092915050565b6000612d3e82612e14565b9150612d4983612e14565b925082612d5957612d58612f6c565b5b828204905092915050565b6000612d6f82612e14565b9150612d7a83612e14565b925082821015612d8d57612d8c612f3d565b5b828203905092915050565b6000612da382612df4565b9050919050565b6000612db582612df4565b9050919050565b60008115159050919050565b60007fffffffff0000000000000000000000000000000000000000000000000000000082169050919050565b600073ffffffffffffffffffffffffffffffffffffffff82169050919050565b6000819050919050565b82818337600083830152505050565b60005b83811015612e4b578082015181840152602081019050612e30565b83811115612e5a576000848401525b50505050565b60006002820490506001821680612e7857607f821691505b60208210811415612e8c57612e8b612f9b565b5b50919050565b612e9b82612ff9565b810181811067ffffffffffffffff82111715612eba57612eb9612fca565b5b80604052505050565b6000612ece82612e14565b91507fffffffffffffffffffffffffffffffffffffffffffffffffffffffffffffffff821415612f0157612f00612f3d565b5b600182019050919050565b6000612f1782612e14565b9150612f2283612e14565b925082612f3257612f31612f6c565b5b828206905092915050565b7f4e487b7100000000000000000000000000000000000000000000000000000000600052601160045260246000fd5b7f4e487b7100000000000000000000000000000000000000000000000000000000600052601260045260246000fd5b7f4e487b7100000000000000000000000000000000000000000000000000000000600052602260045260246000fd5b7f4e487b7100000000000000000000000000000000000000000000000000000000600052604160045260246000fd5b6000601f19601f8301169050919050565b7f4552433732313a207472616e7366657220746f206e6f6e20455243373231526560008201527f63656976657220696d706c656d656e7465720000000000000000000000000000602082015250565b7f4552433732313a20746f6b656e20616c7265616479206d696e74656400000000600082015250565b7f4552433732313a207472616e7366657220746f20746865207a65726f2061646460008201527f7265737300000000000000000000000000000000000000000000000000000000602082015250565b7f4552433732313a20617070726f766520746f2063616c6c657200000000000000600082015250565b7f4552433732313a206f70657261746f7220717565727920666f72206e6f6e657860008201527f697374656e7420746f6b656e0000000000000000000000000000000000000000602082015250565b7f4552433732313a20617070726f76652063616c6c6572206973206e6f74206f7760008201527f6e6572206e6f7220617070726f76656420666f7220616c6c0000000000000000602082015250565b7f4552433732313a2062616c616e636520717565727920666f7220746865207a6560008201527f726f206164647265737300000000000000000000000000000000000000000000602082015250565b7f4552433732313a206f776e657220717565727920666f72206e6f6e657869737460008201527f656e7420746f6b656e0000000000000000000000000000000000000000000000602082015250565b7f45524337323155524953746f726167653a2055524920736574206f66206e6f6e60008201527f6578697374656e7420746f6b656e000000000000000000000000000000000000602082015250565b7f4552433732313a206d696e7420746f20746865207a65726f2061646472657373600082015250565b7f45524337323155524953746f726167653a2055524920717565727920666f722060008201527f6e6f6e6578697374656e7420746f6b656e000000000000000000000000000000602082015250565b7f4552433732313a20617070726f76656420717565727920666f72206e6f6e657860008201527f697374656e7420746f6b656e0000000000000000000000000000000000000000602082015250565b7f4552433732313a207472616e73666572206f6620746f6b656e2074686174206960008201527f73206e6f74206f776e0000000000000000000000000000000000000000000000602082015250565b7f4552433732314d657461646174613a2055524920717565727920666f72206e6f60008201527f6e6578697374656e7420746f6b656e0000000000000000000000000000000000602082015250565b7f4552433732313a20617070726f76616c20746f2063757272656e74206f776e6560008201527f7200000000000000000000000000000000000000000000000000000000000000602082015250565b7f4552433732313a207472616e736665722063616c6c6572206973206e6f74206f60008201527f776e6572206e6f7220617070726f766564000000000000000000000000000000602082015250565b7f5265656e7472616e637947756172643a207265656e7472616e742063616c6c00600082015250565b6134ba81612d98565b81146134c557600080fd5b50565b6134d181612dbc565b81146134dc57600080fd5b50565b6134e881612dc8565b81146134f357600080fd5b50565b6134ff81612e14565b811461350a57600080fd5b5056fea26469706673582212203bbbf653f8cb676d38f76b1098d2a2cc1a4f24336ee52c93a4ab90769679febc64736f6c63430008040033",
  "linkReferences": {},
  "deployedLinkReferences": {}
}