{
    "contractName": "MpaMinter",
    "abi": [
        {
            "inputs": [
                {
                    "internalType": "address",
                    "name": "_minorityAddress",
                    "type": "address"
                }
            ],
            "stateMutability": "nonpayable",
            "type": "constructor"
        },
        {
            "anonymous": false,
            "inputs": [
                {
                    "indexed": true,
                    "internalType": "address",
                    "name": "owner",
                    "type": "address"
                },
                {
                    "indexed": true,
                    "internalType": "address",
                    "name": "spender",
                    "type": "address"
                },
                {
                    "indexed": false,
                    "internalType": "uint256",
                    "name": "value",
                    "type": "uint256"
                }
            ],
            "name": "Approval",
            "type": "event"
        },
        {
            "anonymous": false,
            "inputs": [
                {
                    "indexed": true,
                    "internalType": "address",
                    "name": "newMinter",
                    "type": "address"
                }
            ],
            "name": "MInterChanged",
            "type": "event"
        },
        {
            "anonymous": false,
            "inputs": [
                {
                    "indexed": true,
                    "internalType": "address",
                    "name": "previousOwner",
                    "type": "address"
                },
                {
                    "indexed": true,
                    "internalType": "address",
                    "name": "newOwner",
                    "type": "address"
                }
            ],
            "name": "OwnershipTransferred",
            "type": "event"
        },
        {
            "anonymous": false,
            "inputs": [
                {
                    "indexed": true,
                    "internalType": "address",
                    "name": "from",
                    "type": "address"
                },
                {
                    "indexed": true,
                    "internalType": "address",
                    "name": "to",
                    "type": "address"
                },
                {
                    "indexed": false,
                    "internalType": "uint256",
                    "name": "value",
                    "type": "uint256"
                }
            ],
            "name": "Transfer",
            "type": "event"
        },
        {
            "inputs": [
                {
                    "internalType": "address",
                    "name": "owner",
                    "type": "address"
                },
                {
                    "internalType": "address",
                    "name": "spender",
                    "type": "address"
                }
            ],
            "name": "allowance",
            "outputs": [
                {
                    "internalType": "uint256",
                    "name": "",
                    "type": "uint256"
                }
            ],
            "stateMutability": "view",
            "type": "function",
            "constant": true
        },
        {
            "inputs": [
                {
                    "internalType": "address",
                    "name": "spender",
                    "type": "address"
                },
                {
                    "internalType": "uint256",
                    "name": "amount",
                    "type": "uint256"
                }
            ],
            "name": "approve",
            "outputs": [
                {
                    "internalType": "bool",
                    "name": "",
                    "type": "bool"
                }
            ],
            "stateMutability": "nonpayable",
            "type": "function"
        },
        {
            "inputs": [
                {
                    "internalType": "address",
                    "name": "account",
                    "type": "address"
                }
            ],
            "name": "balanceOf",
            "outputs": [
                {
                    "internalType": "uint256",
                    "name": "",
                    "type": "uint256"
                }
            ],
            "stateMutability": "view",
            "type": "function",
            "constant": true
        },
        {
            "inputs": [
                {
                    "internalType": "address",
                    "name": "spender",
                    "type": "address"
                },
                {
                    "internalType": "uint256",
                    "name": "subtractedValue",
                    "type": "uint256"
                }
            ],
            "name": "decreaseAllowance",
            "outputs": [
                {
                    "internalType": "bool",
                    "name": "",
                    "type": "bool"
                }
            ],
            "stateMutability": "nonpayable",
            "type": "function"
        },
        {
            "inputs": [
                {
                    "internalType": "address",
                    "name": "spender",
                    "type": "address"
                },
                {
                    "internalType": "uint256",
                    "name": "addedValue",
                    "type": "uint256"
                }
            ],
            "name": "increaseAllowance",
            "outputs": [
                {
                    "internalType": "bool",
                    "name": "",
                    "type": "bool"
                }
            ],
            "stateMutability": "nonpayable",
            "type": "function"
        },
        {
            "inputs": [],
            "name": "minorityContract",
            "outputs": [
                {
                    "internalType": "contract minorityInterface",
                    "name": "",
                    "type": "address"
                }
            ],
            "stateMutability": "view",
            "type": "function",
            "constant": true
        },
        {
            "inputs": [],
            "name": "minter",
            "outputs": [
                {
                    "internalType": "address",
                    "name": "",
                    "type": "address"
                }
            ],
            "stateMutability": "view",
            "type": "function",
            "constant": true
        },
        {
            "inputs": [],
            "name": "name",
            "outputs": [
                {
                    "internalType": "string",
                    "name": "",
                    "type": "string"
                }
            ],
            "stateMutability": "view",
            "type": "function",
            "constant": true
        },
        {
            "inputs": [],
            "name": "owner",
            "outputs": [
                {
                    "internalType": "address",
                    "name": "",
                    "type": "address"
                }
            ],
            "stateMutability": "view",
            "type": "function",
            "constant": true
        },
        {
            "inputs": [],
            "name": "renounceOwnership",
            "outputs": [],
            "stateMutability": "nonpayable",
            "type": "function"
        },
        {
            "inputs": [],
            "name": "symbol",
            "outputs": [
                {
                    "internalType": "string",
                    "name": "",
                    "type": "string"
                }
            ],
            "stateMutability": "view",
            "type": "function",
            "constant": true
        },
        {
            "inputs": [],
            "name": "totalSupply",
            "outputs": [
                {
                    "internalType": "uint256",
                    "name": "",
                    "type": "uint256"
                }
            ],
            "stateMutability": "view",
            "type": "function",
            "constant": true
        },
        {
            "inputs": [
                {
                    "internalType": "address",
                    "name": "recipient",
                    "type": "address"
                },
                {
                    "internalType": "uint256",
                    "name": "amount",
                    "type": "uint256"
                }
            ],
            "name": "transfer",
            "outputs": [
                {
                    "internalType": "bool",
                    "name": "",
                    "type": "bool"
                }
            ],
            "stateMutability": "nonpayable",
            "type": "function"
        },
        {
            "inputs": [
                {
                    "internalType": "address",
                    "name": "sender",
                    "type": "address"
                },
                {
                    "internalType": "address",
                    "name": "recipient",
                    "type": "address"
                },
                {
                    "internalType": "uint256",
                    "name": "amount",
                    "type": "uint256"
                }
            ],
            "name": "transferFrom",
            "outputs": [
                {
                    "internalType": "bool",
                    "name": "",
                    "type": "bool"
                }
            ],
            "stateMutability": "nonpayable",
            "type": "function"
        },
        {
            "inputs": [
                {
                    "internalType": "address",
                    "name": "newOwner",
                    "type": "address"
                }
            ],
            "name": "transferOwnership",
            "outputs": [],
            "stateMutability": "nonpayable",
            "type": "function"
        },
        {
            "inputs": [
                {
                    "internalType": "address",
                    "name": "receiver",
                    "type": "address"
                }
            ],
            "name": "mint",
            "outputs": [],
            "stateMutability": "nonpayable",
            "type": "function"
        },
        {
            "inputs": [
                {
                    "internalType": "address[]",
                    "name": "receivers",
                    "type": "address[]"
                }
            ],
            "name": "mintMany",
            "outputs": [],
            "stateMutability": "nonpayable",
            "type": "function"
        },
        {
            "inputs": [
                {
                    "internalType": "address",
                    "name": "_newMinter",
                    "type": "address"
                }
            ],
            "name": "changeMinter",
            "outputs": [],
            "stateMutability": "nonpayable",
            "type": "function"
        },
        {
            "inputs": [],
            "name": "decimals",
            "outputs": [
                {
                    "internalType": "uint8",
                    "name": "",
                    "type": "uint8"
                }
            ],
            "stateMutability": "view",
            "type": "function",
            "constant": true
        }
    ],
    "bytecode": "0x60806040523480156200001157600080fd5b5060405162002c3d38038062002c3d833981810160405281019062000037919062000494565b6040518060400160405280601981526020017f4d696e6f7269747920476f7665726e616e636520546f6b656e000000000000008152506040518060400160405280600381526020017f4d504100000000000000000000000000000000000000000000000000000000008152506000620000b56200024160201b60201c565b9050806000806101000a81548173ffffffffffffffffffffffffffffffffffffffff021916908373ffffffffffffffffffffffffffffffffffffffff1602179055508073ffffffffffffffffffffffffffffffffffffffff16600073ffffffffffffffffffffffffffffffffffffffff167f8be0079c531659141344cd1fd0a4f28419497f9722a3daafe3b4186f6b6457e060405160405180910390a35081600690805190602001906200016b929190620003cd565b50806007908051906020019062000184929190620003cd565b505050620001976200024160201b60201c565b600860006101000a81548173ffffffffffffffffffffffffffffffffffffffff021916908373ffffffffffffffffffffffffffffffffffffffff16021790555080600960006101000a81548173ffffffffffffffffffffffffffffffffffffffff021916908373ffffffffffffffffffffffffffffffffffffffff1602179055506200023a6200022c6200024160201b60201c565b60016200024960201b60201c565b50620006ba565b600033905090565b600073ffffffffffffffffffffffffffffffffffffffff168273ffffffffffffffffffffffffffffffffffffffff161415620002bc576040517f08c379a0000000000000000000000000000000000000000000000000000000008152600401620002b390620004f8565b60405180910390fd5b620002d060008383620003c360201b60201c565b8060056000828254620002e4919062000548565b9250508190555080600360008473ffffffffffffffffffffffffffffffffffffffff1673ffffffffffffffffffffffffffffffffffffffff16815260200190815260200160002060008282546200033c919062000548565b925050819055508173ffffffffffffffffffffffffffffffffffffffff16600073ffffffffffffffffffffffffffffffffffffffff167fddf252ad1be2c89b69c2b068fc378daa952ba7f163c4a11628f55a4df523b3ef83604051620003a391906200051a565b60405180910390a3620003bf60008383620003c860201b60201c565b5050565b505050565b505050565b828054620003db90620005e3565b90600052602060002090601f016020900481019282620003ff57600085556200044b565b82601f106200041a57805160ff19168380011785556200044b565b828001600101855582156200044b579182015b828111156200044a5782518255916020019190600101906200042d565b5b5090506200045a91906200045e565b5090565b5b80821115620004795760008160009055506001016200045f565b5090565b6000815190506200048e81620006a0565b92915050565b600060208284031215620004a757600080fd5b6000620004b7848285016200047d565b91505092915050565b6000620004cf601f8362000537565b9150620004dc8262000677565b602082019050919050565b620004f281620005d9565b82525050565b600060208201905081810360008301526200051381620004c0565b9050919050565b6000602082019050620005316000830184620004e7565b92915050565b600082825260208201905092915050565b60006200055582620005d9565b91506200056283620005d9565b9250827fffffffffffffffffffffffffffffffffffffffffffffffffffffffffffffffff038211156200059a576200059962000619565b5b828201905092915050565b6000620005b282620005b9565b9050919050565b600073ffffffffffffffffffffffffffffffffffffffff82169050919050565b6000819050919050565b60006002820490506001821680620005fc57607f821691505b6020821081141562000613576200061262000648565b5b50919050565b7f4e487b7100000000000000000000000000000000000000000000000000000000600052601160045260246000fd5b7f4e487b7100000000000000000000000000000000000000000000000000000000600052602260045260246000fd5b7f45524332303a206d696e7420746f20746865207a65726f206164647265737300600082015250565b620006ab81620005a5565b8114620006b757600080fd5b50565b61257380620006ca6000396000f3fe608060405234801561001057600080fd5b50600436106101215760003560e01c80636a627842116100ad57806395d89b411161007157806395d89b41146102f8578063a457c2d714610316578063a9059cbb14610346578063dd62ed3e14610376578063f2fde38b146103a657610121565b80636a6278421461026657806370a0823114610282578063715018a6146102b25780637c2916a8146102bc5780638da5cb5b146102da57610121565b806323b872dd116100f457806323b872dd146101b05780632c4d4d18146101e0578063313ce567146101fc578063395093511461021a578063397ada211461024a57610121565b806306fdde03146101265780630754617214610144578063095ea7b31461016257806318160ddd14610192575b600080fd5b61012e6103c2565b60405161013b9190611da4565b60405180910390f35b61014c610454565b6040516101599190611d53565b60405180910390f35b61017c60048036038101906101779190611a5e565b61047a565b6040516101899190611d6e565b60405180910390f35b61019a610498565b6040516101a79190611f66565b60405180910390f35b6101ca60048036038101906101c59190611a0f565b6104a2565b6040516101d79190611d6e565b60405180910390f35b6101fa60048036038101906101f591906119aa565b61059a565b005b610204610726565b6040516102119190611f81565b60405180910390f35b610234600480360381019061022f9190611a5e565b61072b565b6040516102419190611d6e565b60405180910390f35b610264600480360381019061025f9190611a9a565b6107d7565b005b610280600480360381019061027b91906119aa565b610b9b565b005b61029c600480360381019061029791906119aa565b610d90565b6040516102a99190611f66565b60405180910390f35b6102ba610dd9565b005b6102c4610f2c565b6040516102d19190611d89565b60405180910390f35b6102e2610f52565b6040516102ef9190611d53565b60405180910390f35b610300610f7b565b60405161030d9190611da4565b60405180910390f35b610330600480360381019061032b9190611a5e565b61100d565b60405161033d9190611d6e565b60405180910390f35b610360600480360381019061035b9190611a5e565b6110f8565b60405161036d9190611d6e565b60405180910390f35b610390600480360381019061038b91906119d3565b611116565b60405161039d9190611f66565b60405180910390f35b6103c060048036038101906103bb91906119aa565b61119d565b005b6060600680546103d1906120ba565b80601f01602080910402602001604051908101604052809291908181526020018280546103fd906120ba565b801561044a5780601f1061041f5761010080835404028352916020019161044a565b820191906000526020600020905b81548152906001019060200180831161042d57829003601f168201915b5050505050905090565b600860009054906101000a900473ffffffffffffffffffffffffffffffffffffffff1681565b600061048e61048761135f565b8484611367565b6001905092915050565b6000600554905090565b60006104af848484611532565b6000600460008673ffffffffffffffffffffffffffffffffffffffff1673ffffffffffffffffffffffffffffffffffffffff16815260200190815260200160002060006104fa61135f565b73ffffffffffffffffffffffffffffffffffffffff1673ffffffffffffffffffffffffffffffffffffffff1681526020019081526020016000205490508281101561057a576040517f08c379a000000000000000000000000000000000000000000000000000000000815260040161057190611ea6565b60405180910390fd5b61058e8561058661135f565b858403611367565b60019150509392505050565b6105a261135f565b73ffffffffffffffffffffffffffffffffffffffff1660008054906101000a900473ffffffffffffffffffffffffffffffffffffffff1673ffffffffffffffffffffffffffffffffffffffff161461062f576040517f08c379a000000000000000000000000000000000000000000000000000000000815260040161062690611ec6565b60405180910390fd5b600073ffffffffffffffffffffffffffffffffffffffff168173ffffffffffffffffffffffffffffffffffffffff16141561069f576040517f08c379a000000000000000000000000000000000000000000000000000000000815260040161069690611e66565b60405180910390fd5b80600860006101000a81548173ffffffffffffffffffffffffffffffffffffffff021916908373ffffffffffffffffffffffffffffffffffffffff1602179055508073ffffffffffffffffffffffffffffffffffffffff167ffbbd685359f18e101f3de398ce049df9c576d2cbcb275821cdf8a53f814bb2be60405160405180910390a250565b600090565b60006107cd61073861135f565b84846004600061074661135f565b73ffffffffffffffffffffffffffffffffffffffff1673ffffffffffffffffffffffffffffffffffffffff16815260200190815260200160002060008873ffffffffffffffffffffffffffffffffffffffff1673ffffffffffffffffffffffffffffffffffffffff168152602001908152602001600020546107c89190611fb8565b611367565b6001905092915050565b600860009054906101000a900473ffffffffffffffffffffffffffffffffffffffff1673ffffffffffffffffffffffffffffffffffffffff1661081861135f565b73ffffffffffffffffffffffffffffffffffffffff161461083857600080fd5b60005b82829050811015610b9657600a6000848484818110610883577f4e487b7100000000000000000000000000000000000000000000000000000000600052603260045260246000fd5b905060200201602081019061089891906119aa565b73ffffffffffffffffffffffffffffffffffffffff1673ffffffffffffffffffffffffffffffffffffffff16815260200190815260200160002060009054906101000a900460ff16156108ea57600080fd5b6001610942848484818110610928577f4e487b7100000000000000000000000000000000000000000000000000000000600052603260045260246000fd5b905060200201602081019061093d91906119aa565b610d90565b10610982576040517f08c379a000000000000000000000000000000000000000000000000000000000815260040161097990611de6565b60405180910390fd5b6000600960009054906101000a900473ffffffffffffffffffffffffffffffffffffffff1673ffffffffffffffffffffffffffffffffffffffff166370a082318585858181106109fb577f4e487b7100000000000000000000000000000000000000000000000000000000600052603260045260246000fd5b9050602002016020810190610a1091906119aa565b6040518263ffffffff1660e01b8152600401610a2c9190611d53565b60206040518083038186803b158015610a4457600080fd5b505afa158015610a58573d6000803e3d6000fd5b505050506040513d601f19601f82011682018060405250810190610a7c9190611adf565b11610a8657600080fd5b6001600a6000858585818110610ac5577f4e487b7100000000000000000000000000000000000000000000000000000000600052603260045260246000fd5b9050602002016020810190610ada91906119aa565b73ffffffffffffffffffffffffffffffffffffffff1673ffffffffffffffffffffffffffffffffffffffff16815260200190815260200160002060006101000a81548160ff021916908315150217905550610b83838383818110610b67577f4e487b7100000000000000000000000000000000000000000000000000000000600052603260045260246000fd5b9050602002016020810190610b7c91906119aa565b60016117b6565b8080610b8e906120ec565b91505061083b565b505050565b600a60008273ffffffffffffffffffffffffffffffffffffffff1673ffffffffffffffffffffffffffffffffffffffff16815260200190815260200160002060009054906101000a900460ff1615610bf257600080fd5b6001610bfd82610d90565b10610c3d576040517f08c379a0000000000000000000000000000000000000000000000000000000008152600401610c3490611de6565b60405180910390fd5b6000600960009054906101000a900473ffffffffffffffffffffffffffffffffffffffff1673ffffffffffffffffffffffffffffffffffffffff166370a08231836040518263ffffffff1660e01b8152600401610c9a9190611d53565b60206040518083038186803b158015610cb257600080fd5b505afa158015610cc6573d6000803e3d6000fd5b505050506040513d601f19601f82011682018060405250810190610cea9190611adf565b11610d2a576040517f08c379a0000000000000000000000000000000000000000000000000000000008152600401610d2190611e86565b60405180910390fd5b6001600a60008373ffffffffffffffffffffffffffffffffffffffff1673ffffffffffffffffffffffffffffffffffffffff16815260200190815260200160002060006101000a81548160ff021916908315150217905550610d8d8160016117b6565b50565b6000600360008373ffffffffffffffffffffffffffffffffffffffff1673ffffffffffffffffffffffffffffffffffffffff168152602001908152602001600020549050919050565b610de161135f565b73ffffffffffffffffffffffffffffffffffffffff1660008054906101000a900473ffffffffffffffffffffffffffffffffffffffff1673ffffffffffffffffffffffffffffffffffffffff1614610e6e576040517f08c379a0000000000000000000000000000000000000000000000000000000008152600401610e6590611ec6565b60405180910390fd5b600073ffffffffffffffffffffffffffffffffffffffff1660008054906101000a900473ffffffffffffffffffffffffffffffffffffffff1673ffffffffffffffffffffffffffffffffffffffff167f8be0079c531659141344cd1fd0a4f28419497f9722a3daafe3b4186f6b6457e060405160405180910390a360008060006101000a81548173ffffffffffffffffffffffffffffffffffffffff021916908373ffffffffffffffffffffffffffffffffffffffff160217905550565b600960009054906101000a900473ffffffffffffffffffffffffffffffffffffffff1681565b60008060009054906101000a900473ffffffffffffffffffffffffffffffffffffffff16905090565b606060078054610f8a906120ba565b80601f0160208091040260200160405190810160405280929190818152602001828054610fb6906120ba565b80156110035780601f10610fd857610100808354040283529160200191611003565b820191906000526020600020905b815481529060010190602001808311610fe657829003601f168201915b5050505050905090565b6000806004600061101c61135f565b73ffffffffffffffffffffffffffffffffffffffff1673ffffffffffffffffffffffffffffffffffffffff16815260200190815260200160002060008573ffffffffffffffffffffffffffffffffffffffff1673ffffffffffffffffffffffffffffffffffffffff168152602001908152602001600020549050828110156110d9576040517f08c379a00000000000000000000000000000000000000000000000000000000081526004016110d090611f26565b60405180910390fd5b6110ed6110e461135f565b85858403611367565b600191505092915050565b600061110c61110561135f565b8484611532565b6001905092915050565b6000600460008473ffffffffffffffffffffffffffffffffffffffff1673ffffffffffffffffffffffffffffffffffffffff16815260200190815260200160002060008373ffffffffffffffffffffffffffffffffffffffff1673ffffffffffffffffffffffffffffffffffffffff16815260200190815260200160002054905092915050565b6111a561135f565b73ffffffffffffffffffffffffffffffffffffffff1660008054906101000a900473ffffffffffffffffffffffffffffffffffffffff1673ffffffffffffffffffffffffffffffffffffffff1614611232576040517f08c379a000000000000000000000000000000000000000000000000000000000815260040161122990611ec6565b60405180910390fd5b600073ffffffffffffffffffffffffffffffffffffffff168173ffffffffffffffffffffffffffffffffffffffff1614156112a2576040517f08c379a000000000000000000000000000000000000000000000000000000000815260040161129990611e06565b60405180910390fd5b8073ffffffffffffffffffffffffffffffffffffffff1660008054906101000a900473ffffffffffffffffffffffffffffffffffffffff1673ffffffffffffffffffffffffffffffffffffffff167f8be0079c531659141344cd1fd0a4f28419497f9722a3daafe3b4186f6b6457e060405160405180910390a3806000806101000a81548173ffffffffffffffffffffffffffffffffffffffff021916908373ffffffffffffffffffffffffffffffffffffffff16021790555050565b600033905090565b600073ffffffffffffffffffffffffffffffffffffffff168373ffffffffffffffffffffffffffffffffffffffff1614156113d7576040517f08c379a00000000000000000000000000000000000000000000000000000000081526004016113ce90611f06565b60405180910390fd5b600073ffffffffffffffffffffffffffffffffffffffff168273ffffffffffffffffffffffffffffffffffffffff161415611447576040517f08c379a000000000000000000000000000000000000000000000000000000000815260040161143e90611e26565b60405180910390fd5b80600460008573ffffffffffffffffffffffffffffffffffffffff1673ffffffffffffffffffffffffffffffffffffffff16815260200190815260200160002060008473ffffffffffffffffffffffffffffffffffffffff1673ffffffffffffffffffffffffffffffffffffffff168152602001908152602001600020819055508173ffffffffffffffffffffffffffffffffffffffff168373ffffffffffffffffffffffffffffffffffffffff167f8c5be1e5ebec7d5bd14f71427d1e84f3dd0314c0f7b2291e5b200ac8c7c3b925836040516115259190611f66565b60405180910390a3505050565b600073ffffffffffffffffffffffffffffffffffffffff168373ffffffffffffffffffffffffffffffffffffffff1614156115a2576040517f08c379a000000000000000000000000000000000000000000000000000000000815260040161159990611ee6565b60405180910390fd5b600073ffffffffffffffffffffffffffffffffffffffff168273ffffffffffffffffffffffffffffffffffffffff161415611612576040517f08c379a000000000000000000000000000000000000000000000000000000000815260040161160990611dc6565b60405180910390fd5b61161d838383611917565b6000600360008573ffffffffffffffffffffffffffffffffffffffff1673ffffffffffffffffffffffffffffffffffffffff168152602001908152602001600020549050818110156116a4576040517f08c379a000000000000000000000000000000000000000000000000000000000815260040161169b90611e46565b60405180910390fd5b818103600360008673ffffffffffffffffffffffffffffffffffffffff1673ffffffffffffffffffffffffffffffffffffffff1681526020019081526020016000208190555081600360008573ffffffffffffffffffffffffffffffffffffffff1673ffffffffffffffffffffffffffffffffffffffff16815260200190815260200160002060008282546117399190611fb8565b925050819055508273ffffffffffffffffffffffffffffffffffffffff168473ffffffffffffffffffffffffffffffffffffffff167fddf252ad1be2c89b69c2b068fc378daa952ba7f163c4a11628f55a4df523b3ef8460405161179d9190611f66565b60405180910390a36117b084848461191c565b50505050565b600073ffffffffffffffffffffffffffffffffffffffff168273ffffffffffffffffffffffffffffffffffffffff161415611826576040517f08c379a000000000000000000000000000000000000000000000000000000000815260040161181d90611f46565b60405180910390fd5b61183260008383611917565b80600560008282546118449190611fb8565b9250508190555080600360008473ffffffffffffffffffffffffffffffffffffffff1673ffffffffffffffffffffffffffffffffffffffff168152602001908152602001600020600082825461189a9190611fb8565b925050819055508173ffffffffffffffffffffffffffffffffffffffff16600073ffffffffffffffffffffffffffffffffffffffff167fddf252ad1be2c89b69c2b068fc378daa952ba7f163c4a11628f55a4df523b3ef836040516118ff9190611f66565b60405180910390a36119136000838361191c565b5050565b505050565b505050565b6000813590506119308161250f565b92915050565b60008083601f84011261194857600080fd5b8235905067ffffffffffffffff81111561196157600080fd5b60208301915083602082028301111561197957600080fd5b9250929050565b60008135905061198f81612526565b92915050565b6000815190506119a481612526565b92915050565b6000602082840312156119bc57600080fd5b60006119ca84828501611921565b91505092915050565b600080604083850312156119e657600080fd5b60006119f485828601611921565b9250506020611a0585828601611921565b9150509250929050565b600080600060608486031215611a2457600080fd5b6000611a3286828701611921565b9350506020611a4386828701611921565b9250506040611a5486828701611980565b9150509250925092565b60008060408385031215611a7157600080fd5b6000611a7f85828601611921565b9250506020611a9085828601611980565b9150509250929050565b60008060208385031215611aad57600080fd5b600083013567ffffffffffffffff811115611ac757600080fd5b611ad385828601611936565b92509250509250929050565b600060208284031215611af157600080fd5b6000611aff84828501611995565b91505092915050565b611b118161200e565b82525050565b611b2081612020565b82525050565b611b2f81612063565b82525050565b6000611b4082611f9c565b611b4a8185611fa7565b9350611b5a818560208601612087565b611b6381612193565b840191505092915050565b6000611b7b602383611fa7565b9150611b86826121a4565b604082019050919050565b6000611b9e601d83611fa7565b9150611ba9826121f3565b602082019050919050565b6000611bc1602683611fa7565b9150611bcc8261221c565b604082019050919050565b6000611be4602283611fa7565b9150611bef8261226b565b604082019050919050565b6000611c07602683611fa7565b9150611c12826122ba565b604082019050919050565b6000611c2a602683611fa7565b9150611c3582612309565b604082019050919050565b6000611c4d601483611fa7565b9150611c5882612358565b602082019050919050565b6000611c70602883611fa7565b9150611c7b82612381565b604082019050919050565b6000611c93602083611fa7565b9150611c9e826123d0565b602082019050919050565b6000611cb6602583611fa7565b9150611cc1826123f9565b604082019050919050565b6000611cd9602483611fa7565b9150611ce482612448565b604082019050919050565b6000611cfc602583611fa7565b9150611d0782612497565b604082019050919050565b6000611d1f601f83611fa7565b9150611d2a826124e6565b602082019050919050565b611d3e8161204c565b82525050565b611d4d81612056565b82525050565b6000602082019050611d686000830184611b08565b92915050565b6000602082019050611d836000830184611b17565b92915050565b6000602082019050611d9e6000830184611b26565b92915050565b60006020820190508181036000830152611dbe8184611b35565b905092915050565b60006020820190508181036000830152611ddf81611b6e565b9050919050565b60006020820190508181036000830152611dff81611b91565b9050919050565b60006020820190508181036000830152611e1f81611bb4565b9050919050565b60006020820190508181036000830152611e3f81611bd7565b9050919050565b60006020820190508181036000830152611e5f81611bfa565b9050919050565b60006020820190508181036000830152611e7f81611c1d565b9050919050565b60006020820190508181036000830152611e9f81611c40565b9050919050565b60006020820190508181036000830152611ebf81611c63565b9050919050565b60006020820190508181036000830152611edf81611c86565b9050919050565b60006020820190508181036000830152611eff81611ca9565b9050919050565b60006020820190508181036000830152611f1f81611ccc565b9050919050565b60006020820190508181036000830152611f3f81611cef565b9050919050565b60006020820190508181036000830152611f5f81611d12565b9050919050565b6000602082019050611f7b6000830184611d35565b92915050565b6000602082019050611f966000830184611d44565b92915050565b600081519050919050565b600082825260208201905092915050565b6000611fc38261204c565b9150611fce8361204c565b9250827fffffffffffffffffffffffffffffffffffffffffffffffffffffffffffffffff0382111561200357612002612135565b5b828201905092915050565b60006120198261202c565b9050919050565b60008115159050919050565b600073ffffffffffffffffffffffffffffffffffffffff82169050919050565b6000819050919050565b600060ff82169050919050565b600061206e82612075565b9050919050565b60006120808261202c565b9050919050565b60005b838110156120a557808201518184015260208101905061208a565b838111156120b4576000848401525b50505050565b600060028204905060018216806120d257607f821691505b602082108114156120e6576120e5612164565b5b50919050565b60006120f78261204c565b91507fffffffffffffffffffffffffffffffffffffffffffffffffffffffffffffffff82141561212a57612129612135565b5b600182019050919050565b7f4e487b7100000000000000000000000000000000000000000000000000000000600052601160045260246000fd5b7f4e487b7100000000000000000000000000000000000000000000000000000000600052602260045260246000fd5b6000601f19601f8301169050919050565b7f45524332303a207472616e7366657220746f20746865207a65726f206164647260008201527f6573730000000000000000000000000000000000000000000000000000000000602082015250565b7f6163636f756e7420616c726561647920686173204d504120746f6b656e000000600082015250565b7f4f776e61626c653a206e6577206f776e657220697320746865207a65726f206160008201527f6464726573730000000000000000000000000000000000000000000000000000602082015250565b7f45524332303a20617070726f766520746f20746865207a65726f20616464726560008201527f7373000000000000000000000000000000000000000000000000000000000000602082015250565b7f45524332303a207472616e7366657220616d6f756e742065786365656473206260008201527f616c616e63650000000000000000000000000000000000000000000000000000602082015250565b7f63616e6e6f742061737369676e20726f6c6520746f20746865207a65726f206160008201527f6464726573730000000000000000000000000000000000000000000000000000602082015250565b7f75736572206d75737420706f7373657373204d54000000000000000000000000600082015250565b7f45524332303a207472616e7366657220616d6f756e742065786365656473206160008201527f6c6c6f77616e6365000000000000000000000000000000000000000000000000602082015250565b7f4f776e61626c653a2063616c6c6572206973206e6f7420746865206f776e6572600082015250565b7f45524332303a207472616e736665722066726f6d20746865207a65726f20616460008201527f6472657373000000000000000000000000000000000000000000000000000000602082015250565b7f45524332303a20617070726f76652066726f6d20746865207a65726f2061646460008201527f7265737300000000000000000000000000000000000000000000000000000000602082015250565b7f45524332303a2064656372656173656420616c6c6f77616e63652062656c6f7760008201527f207a65726f000000000000000000000000000000000000000000000000000000602082015250565b7f45524332303a206d696e7420746f20746865207a65726f206164647265737300600082015250565b6125188161200e565b811461252357600080fd5b50565b61252f8161204c565b811461253a57600080fd5b5056fea2646970667358221220b17500caeb76fe9c1af79f08a9a57b506238886ea8d1c7a2ccd690cf6cb1045a64736f6c63430008040033",
    "immutableReferences": {},
    "source": "// SPDX-License-Identifier: Unlicensed\n\npragma solidity ^0.8.4;\n\nimport './utils.sol';\n\ncontract minorityInterface {\n    function balanceOf(address account) public view returns (uint256) {\n        \n    }\n}\n\n\ncontract MpaMinter is ERC20 {\n\n    // address responsoble for minting new MPA tokens, more like an admin\n    address public minter;\n    minorityInterface public minorityContract;\n    mapping (address=>bool) blackListed;\n\n    event MInterChanged(address indexed newMinter);\n    \n    //modifier to check minter\n\n    modifier IsMinter() {\n        require(_msgSender() == minter);\n        _;\n    }\n\n    constructor (address _minorityAddress) ERC20(\"Minority Governance Token\", \"MPA\") {\n        minter = _msgSender();\n        minorityContract = minorityInterface(_minorityAddress);\n        _mint(_msgSender(), 1);\n    }\n\n    \n\n    /**\n     * @dev This function mints Mpa token to the provided address..\n     */ \n    function mint(address receiver) public {\n        require(!blackListed[receiver]);\n        require(balanceOf(receiver) < 1, \"account already has MPA token\");\n        require(minorityContract.balanceOf(receiver) > 0, \"user must possess MT\");\n        blackListed[receiver] = true;\n        _mint(receiver, 1);\n    }\n    \n\n    function mintMany(address[] calldata receivers) public IsMinter {\n        for (uint i = 0; i < receivers.length; i++) {\n            require(!blackListed[receivers[i]]);\n            require(balanceOf(receivers[i]) < 1, \"account already has MPA token\");\n            require(minorityContract.balanceOf(receivers[i]) > 0);\n            blackListed[receivers[i]] = true;\n            _mint(receivers[i], 1);\n        }\n        \n    }\n    \n    function changeMinter(address _newMinter) public onlyOwner {\n        require(_newMinter != address(0), \"cannot assign role to the zero address\");\n        minter = _newMinter;\n        emit MInterChanged(_newMinter);\n    }\n\n    function decimals() public view virtual override returns (uint8) {\n        return 0;\n    }\n    \n}",
    "sourcePath": "/home/prometheus/Governance-token/contracts/MpaMinter.sol",
    "compiler": {
        "name": "solc",
        "version": "0.8.4+commit.c7e474f2.Emscripten.clang"
    },
    "schemaVersion": "3.4.1",
    "updatedAt": "2021-08-25T10:22:12.684Z",
    "networkType": "ethereum",
    "devdoc": {
        "kind": "dev",
        "methods": {
            "allowance(address,address)": {
                "details": "See {IERC20-allowance}."
            },
            "approve(address,uint256)": {
                "details": "See {IERC20-approve}. Requirements: - `spender` cannot be the zero address."
            },
            "balanceOf(address)": {
                "details": "See {IERC20-balanceOf}."
            },
            "decimals()": {
                "details": "Returns the number of decimals used to get its user representation. For example, if `decimals` equals `2`, a balance of `505` tokens should be displayed to a user as `5.05` (`505 / 10 ** 2`). Tokens usually opt for a value of 18, imitating the relationship between Ether and Wei. This is the value {ERC20} uses, unless this function is overridden; NOTE: This information is only used for _display_ purposes: it in no way affects any of the arithmetic of the contract, including {IERC20-balanceOf} and {IERC20-transfer}."
            },
            "decreaseAllowance(address,uint256)": {
                "details": "Atomically decreases the allowance granted to `spender` by the caller. This is an alternative to {approve} that can be used as a mitigation for problems described in {IERC20-approve}. Emits an {Approval} event indicating the updated allowance. Requirements: - `spender` cannot be the zero address. - `spender` must have allowance for the caller of at least `subtractedValue`."
            },
            "increaseAllowance(address,uint256)": {
                "details": "Atomically increases the allowance granted to `spender` by the caller. This is an alternative to {approve} that can be used as a mitigation for problems described in {IERC20-approve}. Emits an {Approval} event indicating the updated allowance. Requirements: - `spender` cannot be the zero address."
            },
            "mint(address)": {
                "details": "This function mints Mpa token to the provided address.."
            },
            "name()": {
                "details": "Returns the name of the token."
            },
            "owner()": {
                "details": "Returns the address of the current owner."
            },
            "renounceOwnership()": {
                "details": "Leaves the contract without owner. It will not be possible to call `onlyOwner` functions anymore. Can only be called by the current owner. NOTE: Renouncing ownership will leave the contract without an owner, thereby removing any functionality that is only available to the owner."
            },
            "symbol()": {
                "details": "Returns the symbol of the token, usually a shorter version of the name."
            },
            "totalSupply()": {
                "details": "See {IERC20-totalSupply}."
            },
            "transfer(address,uint256)": {
                "details": "See {IERC20-transfer}. Requirements: - `recipient` cannot be the zero address. - the caller must have a balance of at least `amount`."
            },
            "transferFrom(address,address,uint256)": {
                "details": "See {IERC20-transferFrom}. Emits an {Approval} event indicating the updated allowance. This is not required by the EIP. See the note at the beginning of {ERC20}. Requirements: - `sender` and `recipient` cannot be the zero address. - `sender` must have a balance of at least `amount`. - the caller must have allowance for ``sender``'s tokens of at least `amount`."
            },
            "transferOwnership(address)": {
                "details": "Transfers ownership of the contract to a new account (`newOwner`). Can only be called by the current owner."
            }
        },
        "version": 1
    },
    "userdoc": {
        "kind": "user",
        "methods": {},
        "version": 1
    }
}